:100000000C945D000C9485000C9485000C94850084
:100010000C9485000C9485000C9485000C9485004C
:100020000C9485000C9485000C9485000C9485003C
:100030000C9485000C9485000C9485000C9485002C
:100040000C944C020C9485000C94BC020C94960207
:100050000C9485000C9485000C9485000C9485000C
:100060000C9485000C94850000000008000201003B
:100070000003040700000000000000000000000072
:10008000250028002B0000000000240027002A0083
:10009000040404040404040402020202020203032E
:1000A0000303030301020408102040800102040836
:1000B0001020010204081020100411241FBECFEFED
:1000C000D8E0DEBFCDBF11E0A0E0B1E0EEE1F9E0A5
:1000D00002C005900D92AE37B107D9F722E0AEE726
:1000E000B1E001C01D92AA32B207E1F710E0CDE500
:1000F000D0E004C02197FE010E948704CC35D107CF
:10010000C9F70E94EE020C948D040C94000090E05C
:10011000FC01EC55FF4F249180579F4FFC018491C7
:10012000882399F090E0880F991FFC01EA57FF4F50
:10013000A591B491FC01E458FF4F859194918FB73C
:10014000F894EC91E22BEC938FBF0895E2E7F0E096
:100150002491EEEAF0E09491EAE9F0E0E491EE23F4
:10016000C9F0222339F0233001F1A8F4213019F12C
:10017000223029F1F0E0EE0FFF1FE458FF4FA59168
:10018000B4912FB7F894EC91811126C090959E23DD
:100190009C932FBF08952730A9F02830C9F0243050
:1001A00049F7209180002F7D03C0209180002F7798
:1001B00020938000DFCF24B52F7724BDDBCF24B57B
:1001C0002F7DFBCF2091B0002F772093B000D2CFAE
:1001D0002091B0002F7DF9CF9E2BDACFAF92BF9246
:1001E000CF92DF92EF92FF920F931F93CF93DF9303
:1001F0006C017B018B01040F151FEB015E01AE1832
:10020000BF08C017D10759F06991D601ED91FC9153
:100210000190F081E02DC6010995892B79F7C50180
:10022000DF91CF911F910F91FF90EF90DF90CF90D2
:10023000BF90AF900895FC01538D448D252F30E081
:10024000842F90E0821B930B541710F0CF960895E3
:1002500001970895FC01918D828D981761F0A28D10
:10026000AE0FBF2FB11D5D968C91928D9F5F9F73D6
:10027000928F90E008958FEF9FEF0895FC01918D8C
:10028000828D981731F0828DE80FF11D858D90E0F9
:1002900008958FEF9FEF0895FC01918D228D892F96
:1002A00090E0805C9F4F821B91098F73992708957E
:1002B0008DE891E00E944C0121E0892B09F420E0B7
:1002C000822F089580E090E0892B29F00E94580148
:1002D00081110C9400000895FC01A48DA80FB92F82
:1002E000B11DA35ABF4F2C91848D90E001968F735E
:1002F0009927848FA689B7892C93A089B1898C917D
:10030000837080648C93938D848D981306C00288CB
:10031000F389E02D80818F7D80830895EF92FF9295
:100320000F931F93CF93DF93EC0181E0888F9B8D18
:100330008C8D98131AC0E889F989808185FF15C0D2
:100340009FB7F894EE89FF896083E889F9898081F5
:100350008370806480839FBF81E090E0DF91CF91C4
:100360001F910F91FF90EF900895F62E0B8D10E0E6
:100370000F5F1F4F0F731127E02E8C8D8E110CC055
:100380000FB607FCFACFE889F989808185FFF5CFA0
:10039000CE010E946C01F1CFEB8DEC0FFD2FF11D12
:1003A000E35AFF4FF0829FB7F8940B8FEA89FB89DD
:1003B00080818062CFCFCF93DF93EC01888D88233B
:1003C000B9F0AA89BB89E889F9898C9185FD03C0B8
:1003D000808186FD0DC00FB607FCF7CF8C9185FF9D
:1003E000F2CF808185FFEDCFCE010E946C01E9CF75
:1003F000DF91CF910895FC0101900020E9F731973A
:10040000AF01481B590BBC018DE891E00C94EE0044
:100410008F929F92AF92BF920F931F93CF93DF93D0
:10042000CDB7DEB7A1970FB6F894DEBF0FBECDBF34
:1004300019A2423008F44AE08E010F5D1F4F842E4E
:10044000912CB12CA12CA50194010E945104E62FFE
:10045000B901CA01EA30F4F4E05DD801EE938D01F0
:10046000232B242B252B79F790E080E0109719F0AF
:10047000CD010E94FB01A1960FB6F894DEBF0FBE1E
:10048000CDBFDF91CF911F910F91BF90AF909F9003
:100490008F900895E95CE1CF1F920F920FB60F92F3
:1004A00011242F933F938F939F93AF93BF9380918A
:1004B000890190918A01A0918B01B0918C013091BA
:1004C000880123E0230F2D3758F50196A11DB11D9A
:1004D000209388018093890190938A01A0938B01D6
:1004E000B0938C018091840190918501A091860147
:1004F000B09187010196A11DB11D80938401909355
:100500008501A0938601B0938701BF91AF919F9120
:100510008F913F912F910F900FBE0F901F901895C4
:1005200026E8230F0296A11DB11DD2CF1F920F9274
:100530000FB60F9211242F933F934F935F936F93B6
:100540007F938F939F93AF93BF93EF93FF938DE828
:1005500091E00E946C01FF91EF91BF91AF919F914B
:100560008F917F916F915F914F913F912F910F905C
:100570000FBE0F901F9018951F920F920FB60F92FB
:1005800011242F938F939F93EF93FF93E0919D01FD
:10059000F0919E018081E091A301F091A40182FD80
:1005A0001BC090818091A6018F5F8F732091A7015E
:1005B000821741F0E091A601F0E0E357FE4F958FDE
:1005C0008093A601FF91EF919F918F912F910F90B2
:1005D0000FBE0F901F9018958081F4CF789484B54A
:1005E000826084BD84B5816084BD85B5826085BD2F
:1005F00085B5816085BD80916E00816080936E00BD
:1006000010928100809181008260809381008091AE
:10061000810081608093810080918000816080935F
:1006200080008091B10084608093B1008091B0001F
:1006300081608093B00080917A00846080937A001A
:1006400080917A00826080937A0080917A00816044
:1006500080937A0080917A00806880937A0010926B
:10066000C100E0919D01F0919E0182E08083E091C4
:100670009901F0919A011082E0919B01F0919C0107
:100680008FEC80831092A501E091A101F091A2016D
:1006900086E08083E0919F01F091A00180818061DC
:1006A0008083E0919F01F091A00180818860808328
:1006B000E0919F01F091A001808180688083E091AA
:1006C0009F01F091A00180818F7D80838AE00E944C
:1006D000870081E00E94A600CFB7F89480917E0148
:1006E000811123C0EAE9F0E08491EEEAF0E0949110
:1006F000E82FF0E0EE0FFF1FEA57FF4FA591B491EE
:10070000EC91E92319F481E00E94A6008AE00E949E
:1007100087008CB580618CBD8CB580648CBD8DE00C
:100720000E9487008BE00E94870080917E018F5F8E
:1007300080937E01CFBF81E58CBD1DBC87E191E038
:100740000E94FB0182E391E00E94FB0105E010E0C2
:10075000C0E0D0E02FB7F8948091890190918A0190
:10076000A0918B01B0918C012FBF409180015091DD
:10077000810160918201709183016C017D01C41A35
:10078000D50AE60AF70AB701A601403D57406105C0
:100790007105D8F18093800190938101A09382012B
:1007A000B093830180917F0190E0FC01EE5EFE4FEB
:1007B000F0800196B8010E943D0480937F0180E0A3
:1007C0000E94A600FEBC00000DB407FEFDCFEEB4F3
:1007D00081E00E94A60085E391E00E94FB016F2D5D
:1007E00070E090E080E04AE00E9408028DE591E030
:1007F0000E94FB016E2D70E090E080E04AE00E94D4
:10080000080282E391E00E94FB01209709F4A2CF45
:100810000E945801882309F49DCF0E9400009ACFBE
:10082000EDE8F1E01382128288EE93E0A0E0B0E000
:1008300084839583A683B78384E091E0918380834A
:1008400085EC90E09587848784EC90E09787868795
:1008500080EC90E0918B808B81EC90E0938B828B8D
:1008600082EC90E0958B848B86EC90E0978B868B66
:10087000118E128E138E148E089597FB072E16F488
:10088000009407D077FD09D00E94730407FC05D0BF
:100890003EF4909581959F4F0895709561957F4F97
:1008A0000895A1E21A2EAA1BBB1BFD010DC0AA1FB1
:1008B000BB1FEE1FFF1FA217B307E407F50720F0C9
:1008C000A21BB30BE40BF50B661F771F881F991F44
:1008D0001A9469F760957095809590959B01AC018D
:1008E000BD01CF010895AA1BBB1B51E107C0AA1F80
:1008F000BB1FA617B70710F0A61BB70B881F991FC1
:100900005A95A9F780959095BC01CD010895EE0FF9
:0E091000FF1F0590F491E02D0994F894FFCF9D
:10091E00000000008E01EE001B01DB014C012A01DC
:10092E003E01004080C0FF5B535049204D617374FF
:10093E0065725D20496E696369616C697A61646F85
:10094E002E000D0A005B535049204D617374657281
:10095E005D205472616E736D697469646F202842F4
:10096E0072696C6C6F204C4544293A2000207C2023
:10097E00526563696269646F202845737461646FA0
:0E098E0020417072656E64697A293A2000007B
:00000001FF
