:100000000C9463000C948B000C948B000C945B0399
:100010000C945B030C945B030C948B000C948B008E
:100020000C948B000C948B000C948B000C948B0024
:100030000C948B000C948B000C948B000C948B0014
:100040000C94B9020C948B000C9429030C940303B8
:100050000C948B000C948B000C948B000C948B00F4
:100060000C948B000C948B0000000008000201002F
:100070000003040700000000000000000000000072
:1000800023002600290000000000240027002A0089
:1000900000000000250028002B00040404040404D0
:1000A0000404020202020202030303030303010227
:1000B00004081020408001020408102001020408F6
:1000C00010201F040C0711241FBECFEFD8E0DEBFA5
:1000D000CDBF22E0A2E9B1E001C01D92A53AB2076E
:1000E000E1F711E0A0E0B1E0E8ECF2E102C0059038
:1000F0000D92A239B107D9F710E0C2E6D0E004C0F2
:100100002197FE010E945F07C136D107C9F70E94FF
:1001100008050C9457090C940000AF92BF92CF923F
:10012000DF92EF92FF920F931F93CF93DF936C01B7
:100130007B018B01040F151FEB015E01AE18BF0898
:10014000C017D10759F06991D601ED91FC9101904A
:10015000F081E02DC6010995892B79F7C501DF9162
:10016000CF911F910F91FF90EF90DF90CF90BF90B4
:10017000AF900895FC01538D448D252F30E0842FDE
:1001800090E0821B930B541710F0CF9608950197BF
:100190000895FC01918D828D981761F0A28DAE0FAC
:1001A000BF2FB11D5D968C91928D9F5F9F73928F33
:1001B00090E008958FEF9FEF0895FC01918D828D5F
:1001C000981731F0828DE80FF11D858D90E008952C
:1001D0008FEF9FEF0895FC01918D228D892F90E084
:1001E000805C9F4F821B91098F739927089585EE3C
:1001F00091E00E94EB0021E0892B09F420E0822F9E
:10020000089580E090E0892B29F00E94F700811189
:100210000C9400000895FC01A48DA80FB92FB11D06
:10022000A35ABF4F2C91848D90E001968F7399272C
:10023000848FA689B7892C93A089B1898C9183700A
:1002400080648C93938D848D981306C00288F38903
:10025000E02D80818F7D80830895EF92FF920F9330
:100260001F93CF93DF93EC0181E0888F9B8D8C8D62
:1002700098131AC0E889F989808185FF15C09FB756
:10028000F894EE89FF896083E889F9898081837019
:10029000806480839FBF81E090E0DF91CF911F91C8
:1002A0000F91FF90EF900895F62E0B8D10E00F5FE9
:1002B0001F4F0F731127E02E8C8D8E110CC00FB6BF
:1002C00007FCFACFE889F989808185FFF5CFCE0157
:1002D0000E940B01F1CFEB8DEC0FFD2FF11DE35AC6
:1002E000FF4FF0829FB7F8940B8FEA89FB898081DA
:1002F0008062CFCFCF93DF93EC01888D8823B9F054
:10030000AA89BB89E889F9898C9185FD03C0808120
:1003100086FD0DC00FB607FCF7CF8C9185FFF2CF9D
:10032000808185FFEDCFCE010E940B01E9CFDF91E7
:10033000CF9108952091D4013091D5012817390724
:1003400071F49091D2018091D301981741F0E0911E
:10035000D201F0E0EE56FE4F808190E008958FEFDD
:100360009FEF08950895EF92FF920F931F93CF93FD
:10037000DF93DC015C96ED90FC905D97E114F10455
:1003800079F481E090E013969C938E93129790E01D
:1003900080E0DF91CF911F910F91FF90EF90089532
:1003A0005196ED91FC91529750968C915097982FC1
:1003B00090950FB75E962C915E97122F127021FDCB
:1003C0006095F8942081112319F1282B2083E701EF
:1003D0002197F1F728E0462F50E0308160FF1AC0E6
:1003E000382B3083E7012197F1F7BA0175956795AE
:1003F000215089F7112381F08081892380830FBFE9
:100400005C968D919C910197F1F781E090E0C1CFCE
:100410002923DCCF3923E5CF9081892BEFCF2091A1
:10042000D4013091D5012817390761F48091D301A7
:100430002091D20190E0805C9F4F821B91098F73C5
:100440009927089590E080E008952091D40130919B
:10045000D50128173907B9F49091D2018091D301C1
:10046000981789F0E091D201F0E0EE56FE4F8081BE
:100470002091D20130E02F5F3F4F2F73332720931D
:10048000D20190E008958FEF9FEF089590E080E013
:100490000895FC0101900020E9F73197AF01481B56
:1004A000590BBC0185EE91E00C948D00CF93DF9346
:1004B000EC0188819981009711F00E94010819824E
:1004C00018821D821C821B821A82DF91CF910895AF
:1004D000FC0180819181009711F00C94010808952E
:1004E0000F931F93CF93DF93EC018881998100973D
:1004F00059F02A813B812617370730F081E0DF91E0
:10050000CF911F910F9108958B016F5F7F4F0E94D4
:100510008A08009759F0998388831B830A832C816A
:100520003D81232B59F7FC011082E8CF80E0E7CF13
:10053000EF92FF920F931F93CF93DF93EC017B0118
:100540008A01BA010E94700281110BC0CE010E9483
:100550005602CE01DF91CF911F910F91FF90EF9046
:1005600008951D830C83B701888199810E945009E9
:10057000F0CF1F920F920FB60F9211242F933F933B
:100580008F939F93AF93BF938091E1019091E2018C
:10059000A091E301B091E4013091E00123E0230F49
:1005A0002D3758F50196A11DB11D2093E0018093D0
:1005B000E1019093E201A093E301B093E401809103
:1005C000DC019091DD01A091DE01B091DF01019687
:1005D000A11DB11D8093DC019093DD01A093DE018C
:1005E000B093DF01BF91AF919F918F913F912F9178
:1005F0000F900FBE0F901F90189526E8230F0296BC
:10060000A11DB11DD2CF1F920F920FB60F921124D0
:100610002F933F934F935F936F937F938F939F930A
:10062000AF93BF93EF93FF9385EE91E00E940B0190
:10063000FF91EF91BF91AF919F918F917F916F91BA
:100640005F914F913F912F910F900FBE0F901F9090
:1006500018951F920F920FB60F9211242F938F931C
:100660009F93EF93FF93E091F501F091F601808164
:10067000E091FB01F091FC0182FD1BC09081809113
:10068000FE018F5F8F732091FF01821741F0E0918F
:10069000FE01F0E0EB51FE4F958F8093FE01FF913C
:1006A000EF919F918F912F910F900FBE0F901F9000
:1006B00018958081F4CF1F920F920FB60F921124DC
:1006C0002F933F934F935F936F937F938F939F935A
:1006D000AF93BF93EF93FF93E091D401F091D501D5
:1006E000309749F0A685B7858585968D91FF14C012
:1006F0009C918923A1F4FF91EF91BF91AF919F91BC
:100700008F917F916F915F914F913F912F910F90BA
:100710000FBE0F901F9018959C91892361F7A389B4
:10072000B4899C918589809589238C938689978942
:100730000197F1F7608D718DA685B785558538E0F5
:1007400020E0CB010197F1F7822F90E095958795F6
:10075000282F4C91452309F02068315091F7868D60
:1007600081FD20958091D30190E001968F739927A8
:100770003091D201381799F0A091D301B0E0AE5674
:10078000BE4F2C938093D301828D938D0197F1F707
:10079000A389B4898C919589892B8C93ACCF868D54
:1007A0008160868FF1CF90E0FC01E859FF4F2491E2
:1007B000FC01E255FF4F3491FC01E656FF4FE491F6
:1007C000EE23C9F0222339F0233001F1A8F42130BF
:1007D00019F1223029F1F0E0EE0FFF1FE057FF4F33
:1007E000A591B4918FB7F894EC91611126C0309522
:1007F0003E233C938FBF08952730A9F02830C9F0DD
:10080000243049F7809180008F7D03C08091800063
:100810008F7780938000DFCF84B58F7784BDDBCF67
:1008200084B58F7DFBCF8091B0008F778093B0002F
:10083000D2CF8091B0008F7DF9CF3E2BDACF0F93CE
:100840001F93CF93DF931092E8011092E70188EE97
:1008500093E0A0E0B0E08093E9019093EA01A093D7
:10086000EB01B093EC012AE031E03093E6012093F4
:10087000E50125EC30E03093F2012093F10124EC06
:1008800030E03093F4012093F30120EC30E030931A
:10089000F6012093F50121EC30E03093F80120932C
:1008A000F70122EC30E03093FA012093F90126ECB5
:1008B00030E03093FC012093FB011092FE01109276
:1008C000FF01109200021092010210928502109214
:1008D00084028093860290938702A0938802B0934B
:1008E00089028CE191E090938302809382021092BE
:1008F00099021092980210929B0210929A02109202
:100900009D0210929C0210929F0210929E02609192
:10091000A0026E7F6D7F6093A0026695617081E09A
:10092000682783E00E94D30341EB50E0FA01649111
:100930008DE990E0FC012491222399F030E0220F10
:10094000331FF901EA57FF4FA591B491F901E05720
:10095000FF4F259134912FB7F8943C91632B6C9302
:100960002FBFFA01449140939202FC018491E82F39
:10097000F0E0EE0FFF1FE057FF4F859194919093A9
:1009800094028093930200EB10E0F8012491CCE9EB
:10099000D0E0FE0184918823C9F090E0880F991F70
:1009A000FC01EA57FF4FA591B491FC01E057FF4FBE
:1009B000459154913FB7F8949C91822F809598234C
:1009C0009C93FA019081892380833FBF8091A0028C
:1009D00081FD04C061E082E00E94D30382E0809345
:1009E0008E02F801049100938F02FE01C491EC2F56
:1009F000F0E0EE0FFF1FE458FF4F85919491909324
:100A0000910280939002DF91CF911F910F910895F1
:100A1000CF93DF93CDB7DEB762970FB6F894DEBF02
:100A20000FBECDBF789484B5826084BD84B58160EB
:100A300084BD85B5826085BD85B5816085BD8091A9
:100A40006E00816080936E00109281008091810021
:100A50008260809381008091810081608093810019
:100A6000809180008160809380008091B1008460DB
:100A70008093B1008091B00081608093B00080913C
:100A80007A00846080937A0080917A0082608093FB
:100A90007A0080917A00816080937A0080917A0058
:100AA000806880937A001092C100E091F501F09186
:100AB000F60182E08083E091F101F091F201108271
:100AC000E091F301F091F4018FEC80831092FD012D
:100AD000E091F901F091FA0186E08083E091F7015D
:100AE000F091F801808180618083E091F701F091BD
:100AF000F801808188608083E091F701F091F8012E
:100B0000808180688083E091F701F091F801808115
:100B10008F7D808310929D0210929C0210929B0206
:100B200010929A0210929902109298028DE991E027
:100B300090939F0280939E0290918E02963108F0CE
:100B400047C02DEB30E030939902209398022BE9B7
:100B500031E030939B0220939A022CE231E03093F3
:100B60009D0220939C022091680084E0983048F018
:100B700031E09E3008F430E081E001C0880F3A9502
:100B8000EAF7822B809368002DE630E0983050F031
:100B90002BE630E09E3030F02CE630E0963110F05D
:100BA00030E020E03093960220939502292F30E028
:100BB000983008F012C181E001C0880F9A95EAF7D9
:100BC0008093970280919E0290919F020197F1F786
:100BD00080919C0290919D02892B49F1E091D40172
:100BE000F091D50102E0E238F00709F1309739F0D1
:100BF000A389B4899C918589809589238C93809160
:100C0000A0028E7F8093A0021092D3011092D20195
:100C100082E892E09093D5018093D401E09195020F
:100C2000F0919602808190919702892B808389E3CD
:100C300091E00E94490282E791E00E94490280E02F
:100C4000E82E80E0F82E2FB7F8948091E101909182
:100C5000E201A091E301B091E4012FBF4091D801DE
:100C60005091D9016091DA017091DB018C019D01F5
:100C7000041B150B260B370BB901A801403D57404B
:100C80006105710508F49DC08093D8019093D90146
:100C9000A093DA01B093DB018091D6019091D70146
:100CA00001969093D7018093D6016AE271E080FFAC
:100CB00002C061E371E01E861D86188A1F861A8AAB
:100CC000198AFB0101900020E9F73197AF01461B1B
:100CD000570BCE010D960E9498021A8219821C822F
:100CE0001B821E821D8241E050E065E771E0CE016B
:100CF00001960E949802CD84DE84C114D10409F4C7
:100D000079C009891A8901151105B9F08D819E8173
:100D1000080F191FB801CE0101960E9470028823A6
:100D200009F468C029813A818D819E81B601820FC4
:100D3000931F0E9450091E830D830D811E810F5F3A
:100D40001F4FB801CE0101960E947002811157C059
:100D5000CE0101960E94560218861F821A861986B5
:100D60001C861B8669817A816115710531F04D8180
:100D70005E81CE0107960E949802CE0101960E94E4
:100D800068024B855C856F81788582E892E00E94DD
:100D90008D0089E791E00E9449024B855C856F8157
:100DA000788585EE91E00E948D0082E791E00E94B7
:100DB0004902CE0107960E946802CE010D960E945C
:100DC0006802E114F10409F43ECF0E94F700882381
:100DD00009F439CF0E94000036CF9E3040F42850ED
:100DE000310981E001C0880F2A95EAF7E9CE2E503B
:100DF0003109F7CFCE0101960E9456029ECF29817C
:100E00003A818D819E8167E771E0820F931F0E9476
:100E100050091E830D83A0CF8CE191E09093830253
:100E2000809382028091D4019091D50182589240A2
:100E300071F4E0919502F091960290818091970271
:100E40008095892380831092D5011092D401089552
:100E50002F923F924F925F926F927F928F929F92CA
:100E6000AF92BF92CF92DF92EF92FF920F931F93B8
:100E7000CF93DF93CDB7DEB7CA1BDB0B0FB6F89469
:100E8000DEBF0FBECDBF09942A88398848885F84A9
:100E90006E847D848C849B84AA84B984C884DF801A
:100EA000EE80FD800C811B81AA81B981CE0FD11DFE
:100EB0000FB6F894DEBF0FBECDBFED010895EE0F63
:100EC000FF1F0590F491E02D09940F931F93CF938A
:100ED000DF938230910510F482E090E0E091A3026C
:100EE000F091A40230E020E0B0E0A0E0309799F467
:100EF0002115310509F44AC0281B390B243031056E
:100F0000D8F58A819B816115710589F1FB01938375
:100F10008283FE0111C040815181028113814817F3
:100F20005907E0F04817590799F4109761F01296A5
:100F30000C93129713961C933296CF01DF91CF91A9
:100F40001F910F9108950093A3021093A402F4CF70
:100F50002115310551F04217530738F0A901DB0183
:100F60009A01BD01DF01F801C1CFEF01F9CF9093E4
:100F7000A4028093A302CDCFFE01E20FF31F819361
:100F800091932250310939832883D7CF2091A10230
:100F90003091A202232B41F42091020130910301F0
:100FA0003093A2022093A10220910001309101010F
:100FB0002115310541F42DB73EB740910401509100
:100FC0000501241B350BE091A102F091A202E2176A
:100FD000F307A0F42E1B3F0B2817390778F0AC015C
:100FE0004E5F5F4F2417350748F04E0F5F1F509339
:100FF000A2024093A102819391939FCFF0E0E0E0A1
:101000009CCFCF93DF930097E9F0FC0132971382D6
:101010001282A091A302B091A402ED0130E020E081
:101020001097A1F420813181820F931F2091A1029A
:101030003091A2022817390709F061C0F093A2028B
:10104000E093A102DF91CF910895EA01CE17DF0767
:10105000E8F54A815B819E0141155105B1F7E9012F
:10106000FB83EA8349915991C40FD51FEC17FD0703
:1010700061F4808191810296840F951FE901998323
:101080008883828193819B838A83F0E0E0E01296DB
:101090008D919C9113970097B9F52D913C911197E3
:1010A000CD010296820F931F2091A1023091A202DE
:1010B0002817390739F6309751F51092A40210928B
:1010C000A302B093A202A093A102BCCFD383C28398
:1010D00040815181840F951FC817D90761F44E5F75
:1010E0005F4F88819981480F591F518340838A81BE
:1010F0009B81938382832115310509F0B0CFF09352
:10110000A402E093A3029ECFFD01DC01C0CF1382B5
:101110001282D7CFB0E0A0E0E0E9F8E00C942A0713
:101120008C01009751F4CB010E9465078C01C80126
:10113000CDB7DEB7E0E10C944607FC01E60FF71FE0
:101140009C0122503109E217F30708F49DC0D90130
:10115000CD91DC911197C617D70798F0C530D1050E
:1011600030F3CE0104978617970708F3C61BD70BF9
:101170002297C193D1936D937C93CF010E94010874
:10118000D6CF5B01AC1ABD0A4C018C0E9D1EA091FE
:10119000A302B091A402512C412CF12CE12C109708
:1011A00031F58091A1029091A2028815990509F06C
:1011B0005CC04616570608F058C080910001909117
:1011C0000101009741F48DB79EB740910401509101
:1011D0000501841B950BE817F90708F055C0F0933B
:1011E000A202E093A102F90171836083A0CF8D91E7
:1011F0009C91119712966C90129713967C9013976E
:10120000A815B90559F56C0142E0C40ED11CCA14E9
:10121000DB0420F1AC014A195B09DA01129615973B
:1012200080F06282738251834083D9016D937C93F5
:10123000E114F10471F0D7011396FC93EE93129729
:1012400076CF22968C0F9D1FF90191838083F30145
:10125000EFCFF093A402E093A30269CF481659069A
:1012600008F42C017D01D3019ACFCB010E946507C0
:101270007C01009749F0AE01B8010E944709C801FE
:101280000E940108870153CF10E000E050CFFB011E
:10129000DC0102C001900D9241505040D8F70895F2
:1012A000FB01DC0101900D920020E1F7089510E0B0
:1012B000C2E6D0E004C0FE010E945F072196C3365B
:0812C000D107C9F7F894FFCF34
:1012C8000000A5028000000000002D018D00BA007A
:1012D8007A01EB00C900DD0000000000B3018D00B9
:1012E8004602B2010F0225029A014C45445F4F4E57
:1012F800004C45445F4F4646005B554152542053CD
:10130800656E6465725D20496E696369616C697AAE
:1013180061646F2E20456E7669616E646F206D651D
:101328006E73616A657320636164612032732E2E67
:101338002E000D0A005B005D005B5541525420539E
:10134800656E6465725D20456E766961646F3A20EA
:02135800000093
:00000001FF
