:100000000C945D000C9485000C9485000C94850084
:100010000C9485000C9485000C9485000C9485004C
:100020000C9485000C9485000C9485000C9485003C
:100030000C9485000C9485000C9485000C9485002C
:100040000C94C2030C9485000C9432040C940C04A0
:100050000C9485000C9485000C9485000C9485000C
:100060000C9464040C948500000000002400270018
:100070002A0000000000250028002B0004040404CE
:100080000404040402020202020203030303030342
:10009000010204081020408001020408102001021F
:1000A00004081020000000080002010000030407FB
:1000B0000000000000000000830511241FBECFEFE8
:1000C000D8E0DEBFCDBF12E0A0E0B1E0EAEAFDE09B
:1000D00002C005900D92A831B107D9F723E0A8E13D
:1000E000B2E001C01D92A636B207E1F710E0CDE5FF
:1000F000D0E004C02197FE010E94CD06CC35D10787
:10010000C9F70E94BC050C94D3060C94000090E043
:10011000FC01EC55FF4F2491FC01E057FF4F349157
:10012000FC01E458FF4FE491EE23C9F0222339F09B
:10013000233001F1A8F4213019F1223029F1F0E047
:10014000EE0FFF1FEE58FF4FA591B4918FB7F894B3
:10015000EC91611126C030953E233C938FBF0895EA
:100160002730A9F02830C9F0243049F78091800069
:100170008F7D03C0809180008F7780938000DFCFD8
:1001800084B58F7784BDDBCF84B58F7DFBCF809125
:10019000B0008F778093B000D2CF8091B0008F7D78
:1001A000F9CF3E2BDACF3FB7F8948091B902909106
:1001B000BA02A091BB02B091BC0226B5A89B05C0B3
:1001C0002F3F19F00196A11DB11D3FBFBA2FA92FD6
:1001D000982F8827BC01CD01620F711D811D911DD3
:1001E00042E0660F771F881F991F4A95D1F708953F
:1001F000E091B202F091B302309729F01092AD0273
:100200001092AC0209940895CF93DF93AC01E09172
:10021000B002F091B1023097F1F09091AF0280916D
:10022000AE029817C0F090E0292F30E0261737076C
:1002300054F4D901A85EBD4F240F351FE901288170
:100240002C939F5FF1CF1092AF026093AE02CB016F
:10025000DF91CF910994DF91CF910895AF92BF9232
:10026000CF92DF92EF92FF920F931F93CF93DF9382
:100270006C017B018B01040F151FEB015E01AE18B1
:10028000BF08C017D10759F06991D601ED91FC91D3
:100290000190F081E02DC6010995892B79F7C50100
:1002A000DF91CF911F910F91FF90EF90DF90CF9052
:1002B000BF90AF900895FC01538D448D252F30E001
:1002C000842F90E0821B930B541710F0CF96089563
:1002D00001970895FC01918D828D981761F0A28D90
:1002E000AE0FBF2FB11D5D968C91928D9F5F9F7356
:1002F000928F90E008958FEF9FEF0895FC01918D0C
:10030000828D981731F0828DE80FF11D858D90E078
:1003100008958FEF9FEF0895FC01918D228D892F15
:1003200090E0805C9F4F821B91098F7399270895FD
:100330008DEB92E00E948C0121E0892B09F420E0F2
:10034000822F089580E090E0892B29F00E94980187
:1003500081110C9400000895FC01A48DA80FB92F01
:10036000B11DA35ABF4F2C91848D90E001968F73DD
:100370009927848FA689B7892C93A089B1898C91FC
:10038000837080648C93938D848D981306C002884B
:10039000F389E02D80818F7D80830895EF92FF9215
:1003A0000F931F93CF93DF93EC0181E0888F9B8D98
:1003B0008C8D98131AC0E889F989808185FF15C052
:1003C0009FB7F894EE89FF896083E889F989808175
:1003D0008370806480839FBF81E090E0DF91CF9144
:1003E0001F910F91FF90EF900895F62E0B8D10E066
:1003F0000F5F1F4F0F731127E02E8C8D8E110CC0D5
:100400000FB607FCFACFE889F989808185FFF5CF1F
:10041000CE010E94AC01F1CFEB8DEC0FFD2FF11D51
:10042000E35AFF4FF0829FB7F8940B8FEA89FB895C
:1004300080818062CFCFCF93DF93EC01888D8823BA
:10044000B9F0AA89BB89E889F9898C9185FD03C037
:10045000808186FD0DC00FB607FCF7CF8C9185FF1C
:10046000F2CF808185FFEDCFCE010E94AC01E9CFB4
:10047000DF91CF91089520915E02260F3327331F1D
:1004800021323105ECF420918202FC0190E080E001
:10049000243069F082E00895A0915E022191AC01C0
:1004A000425C5D4FA40FB52FB11D2C9301968617AA
:1004B00098F380915E02680F60935E0280E0089579
:1004C00081E008951092820281E08093840210926C
:1004D000830261E082E10E94870061E083E10E9483
:1004E0008700E9EBF0E080818E7F808380818D7FC3
:1004F000808388E48093B80085E48093BC000895ED
:100500000895E091AF028091AE02E81730F4F0E078
:10051000E85EFD4F808190E008958FEF9FEF089592
:100520009091AF028091AE022FEF3FEF981748F401
:10053000E92FF0E0E85EFD4F208130E09F5F90936F
:10054000AF02C90108958091AE029091AF02891B5C
:10055000990B0895CF93DF93CB01EA01642F0E949A
:100560003B02CE01DF91CF910895CF93DF931F928D
:10057000CDB7DEB7698361E0CE0101960E943B02F0
:1005800081E090E00F90DF91CF91089590E080E0BE
:100590000895FC0101900020E9F73197AF01481B55
:1005A000590BBC018DEB92E00C942E01CF93DF939D
:1005B0000E94C902EC0185E291E00E94C9028C0F01
:1005C0009D1FDF91CF910895609100018AE593E02E
:1005D0000E94B50288E491E00E94C9028091000166
:1005E000813021F089E391E00C94D60288E291E019
:1005F000FBCFCF93DF9385ED8093BC0080913A02CF
:1006000090913B02A0913C02B0913D020796A11D42
:10061000B11D23E0B695A795979587952A95D1F7B3
:100620002091BC0024FD03C01092820236C040918C
:100630003A0250913B0260913C0270913D02452B81
:10064000462B472B69F30097A105B10541F02AE23B
:100650002A95F1F700C00197A109B109E1CF809176
:10066000390291E0909338028823B9F0C091B80024
:10067000D091BA008091BC008A7B8093BC0060E07E
:1006800082E10E94870060E083E10E9487000E946F
:100690006202D093BA00C093B800DF91CF91089561
:1006A000CF92DF92EF92FF920F931F93CF93DF933E
:1006B000CDB7DEB7A1970FB6F894DEBF0FBECDBFA2
:1006C0008AE0C82ED12CE12CF12C8091AE029091C1
:1006D000AF02891B990B181619060CF044C08AE565
:1006E00093E00E949002182F86E891E00E94C902D0
:1006F000113059F461E08DE00E94870010930001F1
:100700008AEA91E00E94D602E0CF123049F460E01C
:100710008DE00E948700109300018EEB91E0F2CFF4
:1007200080ED91E00E94C902212F30E050E040E0CE
:1007300019A28E010F5D1F4FCA01B901A7019601D1
:100740000E94AB06605DF80162938F0121153105AF
:100750004105510589F7309719F0CF010E94C90270
:100760008CEB91E0CFCFA1960FB6F894DEBF0FBE11
:10077000CDBFDF91CF911F910F91FF90EF90DF9050
:10078000CF9008951F920F920FB60F9211242F93BE
:100790003F938F939F93AF93BF938091B5029091B6
:1007A000B602A091B702B091B8023091B40223E032
:1007B000230F2D3758F50196A11DB11D2093B402CA
:1007C0008093B5029093B602A093B702B093B8029B
:1007D0008091B9029091BA02A091BB02B091BC0283
:1007E0000196A11DB11D8093B9029093BA02A09306
:1007F000BB02B093BC02BF91AF919F918F913F918B
:100800002F910F900FBE0F901F90189526E8230F81
:100810000296A11DB11DD2CF1F920F920FB60F925B
:1008200011242F933F934F935F936F937F938F93F5
:100830009F93AF93BF93EF93FF938DEB92E00E9452
:10084000AC01FF91EF91BF91AF919F918F917F91FB
:100850006F915F914F913F912F910F900FBE0F902D
:100860001F9018951F920F920FB60F9211242F937D
:100870008F939F93EF93FF93E091CD02F091CE027F
:100880008081E091D302F091D40282FD1BC090815F
:100890008091D6028F5F8F732091D702821741F02B
:1008A000E091D602F0E0E354FD4F958F8093D6029D
:1008B000FF91EF919F918F912F910F900FBE0F900D
:1008C0001F9018958081F4CF1F920F920FB60F9250
:1008D00011242F933F934F935F936F937F938F9345
:1008E0009F93AF93BF93EF93FF938091B900887F5D
:1008F000803609F44AC0F0F5883209F4A7C018F52B
:10090000803109F49BC0B8F4882309F4F9C0883019
:1009100009F494C0FF91EF91BF91AF919F918F9196
:100920007F916F915F914F913F912F910F900FBEEB
:100930000F901F901895883109F488C0803251F7C4
:100940008093810214C0803409F49DC040F4803348
:10095000B9F38833F9F68093810285ECB0C0803515
:1009600009F485C0883509F496C0883499F60E9448
:10097000F902D0CF883909F48CC038F5883729F0CE
:1009800050F4883611F0803729F683E08093820294
:100990001092800257C0883809F47BC0803919F062
:1009A000803809F0B7CF80918002803208F071C0A2
:1009B000E091800281E08E0F809380028091BB00E5
:1009C000F0E0E05AFD4F80833DC0803B39F0E0F419
:1009D000803A09F479C0883A09F09CCF84E080938A
:1009E000820210925F0210925E02E091AA02F091E0
:1009F000AB02099580915E0281110FC081E0809366
:100A00005E0210923E0209C0803C09F4A6CF883CE9
:100A100009F4A3CF883B09F07DCFE0915F0281E02C
:100A20008E0F80935F02F0E0E25CFD4F8081809347
:100A3000BB0090915F0280915E0229C08091A70265
:100A40008093BB0085EC8093BC0064CF9091A6029C
:100A50008091A502981758F5E091A60281E08E0FCB
:100A60008093A602F0E0EB57FD4F8081E9CFE09143
:100A7000A60281E08E0F8093A6028091BB00F0E079
:100A8000EB57FD4F80839091A6028091A5029817A5
:100A9000C8F285E8D8CFE091A60281E08E0F80935E
:100AA000A6028091BB00F0E0EB57FD4F8083809160
:100AB000840281115CCF81E08093830284EA809379
:100AC000BC001092820226CF85EC8093BC0010926D
:100AD000820280918002803230F4E0918002F0E066
:100AE000E05AFD4F10826091800270E0E091A80210
:100AF000F091A90280E692E00995109280020ACF57
:100B00001092810234CFEDEBF2E01382128288EE74
:100B100093E0A0E0B0E084839583A683B78325E0CB
:100B200031E03183208325EC30E03587248724ECC5
:100B300030E03787268720EC30E0318B208B21ECAA
:100B400030E0338B228B22EC30E0358B248B26EC8B
:100B500030E0378B268B118E128E138E148EEAE5C1
:100B6000F3E01382128284839583A683B78387E19F
:100B700091E0918380830895789484B5826084BDE8
:100B800084B5816084BD85B5826085BD85B5816091
:100B900085BD80916E00816080936E00109281000F
:100BA00080918100826080938100809181008160CA
:100BB000809381008091800081608093800080918B
:100BC000B10084608093B1008091B0008160809317
:100BD000B00080917A00846080937A0080917A00DE
:100BE000826080937A0080917A00816080937A009D
:100BF00080917A00806880937A001092C100EDE9BC
:100C0000F0E02491E9E8F0E08491882399F090E005
:100C1000880F991FFC01E859FF4FA591B491FC0181
:100C2000EE58FF4F859194918FB7F894EC91E22B99
:100C3000EC938FBF60E08DE00E948700E091CD02D1
:100C4000F091CE0282E08083E091C902F091CA0265
:100C50001082E091CB02F091CC028FEC8083109255
:100C6000D502E091D102F091D20286E08083E0913A
:100C7000CF02F091D002808180618083E091CF0229
:100C8000F091D002808188608083E091CF02F09162
:100C9000D002808180688083E091CF02F091D00201
:100CA00080818F7D80831092AF021092AE021092ED
:100CB000AD021092AC020E94620288EF90E0909325
:100CC000AB028093AA0284E091E09093A902809302
:100CD000A80280E18093BA0080E593E09093B1028E
:100CE0008093B00284EE92E09093B3028093B202BC
:100CF0008EED91E00E94D602C0E0D0E00E94D300C9
:100D00004B015C0184E6C82ED12CE12CF12C0E9411
:100D1000D300681979098A099B09683E73408105E7
:100D20009105A8F321E0C21AD108E108F10888EE84
:100D3000880E83E0981EA11CB11CC114D104E104EB
:100D4000F10429F72097D1F20E9498018823B1F28B
:100D50000E940000D3CFA1E21A2EAA1BBB1BFD01EB
:100D60000DC0AA1FBB1FEE1FFF1FA217B307E4078A
:100D7000F50720F0A21BB30BE40BF50B661F771FE2
:100D8000881F991F1A9469F76095709580959095C2
:100D90009B01AC01BD01CF010895EE0FFF1F05902F
:0A0DA000F491E02D0994F894FFCFC0
:100DAA000200000000CE012E015B011B028C016AC9
:100DBA00017E0100000000B502AA02C6028002A359
:100DCA0002900281020D0A00454E43454E444944B1
:100DDA004F20283078303129004150414741444F53
:100DEA0020283078303229005B4932432041707024
:100DFA0072656E746963655D20506574696369C361
:100E0A00B36E2072656369626964612E20456E76ED
:100E1A0069616E646F2065737461646F20616374C5
:100E2A0075616C3A20005B493243204170707265EB
:100E3A006E746963655D20526563696269646F20D7
:100E4A00636F6D616E646F3A2000454E43454E44B0
:100E5A004552204C454420283078303129004150F1
:100E6A0041474152204C45442028307830322900ED
:100E7A00446573636F6E6F6369646F2028005B4912
:100E8A0032432041707072656E746963655D2049F2
:100E9A006E696369616C697A61646F207920657330
:100EAA00706572616E646F20736F6C6963697475C3
:080EBA006465732E2E2E00006A
:00000001FF
