:100000000C945D000C9485000C9485000C94850084
:100010000C9485000C9485000C9485000C9485004C
:100020000C9485000C9485000C9485000C9485003C
:100030000C9485000C9485000C9485000C9485002C
:100040000C944C020C94EE020C94BC020C9496029C
:100050000C9485000C9485000C9485000C9485000C
:100060000C9485000C9485000000000024002700FB
:100070002A0000000000250028002B0004040404CE
:100080000404040402020202020203030303030342
:10009000010204081020408001020408102001021F
:1000A00004081020000000080002010000030407FB
:1000B0000000000000000000230411241FBECFEF49
:1000C000D8E0DEBFCDBF11E0A0E0B1E0E4EFF8E0A2
:1000D00002C005900D92A43AB107D9F722E0A4EA34
:1000E000B1E001C01D92AD34B207E1F710E0CDE5FB
:1000F000D0E004C02197FE010E947204CC35D107E4
:10010000C9F70E9408030C9478040C940000EDEAEF
:10011000F0E02491E9E9F0E09491E5E8F0E0E49181
:10012000EE23C9F0222339F0233001F1A8F4213065
:1001300019F1223029F1F0E0EE0FFF1FEE58FF4FCA
:10014000A591B4912FB7F894EC91811126C09095A8
:100150009E239C932FBF08952730A9F02830C9F023
:10016000243049F7209180002F7D03C0209180002A
:100170002F7720938000DFCF24B52F7724BDDBCFEE
:1001800024B52F7DFBCF2091B0002F772093B000B6
:10019000D2CF2091B0002F7DF9CF9E2BDACF90E007
:1001A000FC01E057FF4F249184589F4FFC0184913C
:1001B000882399F090E0880F991FFC01E859FF4FC0
:1001C000A591B491FC01EE58FF4F859194918FB7A2
:1001D000F894EC91E22BEC938FBF0895AF92BF920D
:1001E000CF92DF92EF92FF920F931F93CF93DF9303
:1001F0006C017B018B01040F151FEB015E01AE1832
:10020000BF08C017D10759F06991D601ED91FC9153
:100210000190F081E02DC6010995892B79F7C50180
:10022000DF91CF911F910F91FF90EF90DF90CF90D2
:10023000BF90AF900895FC01538D448D252F30E081
:10024000842F90E0821B930B541710F0CF960895E3
:1002500001970895FC01918D828D981761F0A28D10
:10026000AE0FBF2FB11D5D968C91928D9F5F9F73D6
:10027000928F90E008958FEF9FEF0895FC01918D8C
:10028000828D981731F0828DE80FF11D858D90E0F9
:1002900008958FEF9FEF0895FC01918D228D892F96
:1002A00090E0805C9F4F821B91098F73992708957E
:1002B00080EB91E00E944C0121E0892B09F420E0C1
:1002C000822F089580E090E0892B29F00E94580148
:1002D00081110C9400000895FC01A48DA80FB92F82
:1002E000B11DA35ABF4F2C91848D90E001968F735E
:1002F0009927848FA689B7892C93A089B1898C917D
:10030000837080648C93938D848D981306C00288CB
:10031000F389E02D80818F7D80830895EF92FF9295
:100320000F931F93CF93DF93EC0181E0888F9B8D18
:100330008C8D98131AC0E889F989808185FF15C0D2
:100340009FB7F894EE89FF896083E889F9898081F5
:100350008370806480839FBF81E090E0DF91CF91C4
:100360001F910F91FF90EF900895F62E0B8D10E0E6
:100370000F5F1F4F0F731127E02E8C8D8E110CC055
:100380000FB607FCFACFE889F989808185FFF5CFA0
:10039000CE010E946C01F1CFEB8DEC0FFD2FF11D12
:1003A000E35AFF4FF0829FB7F8940B8FEA89FB89DD
:1003B00080818062CFCFCF93DF93EC01888D88233B
:1003C000B9F0AA89BB89E889F9898C9185FD03C0B8
:1003D000808186FD0DC00FB607FCF7CF8C9185FF9D
:1003E000F2CF808185FFEDCFCE010E946C01E9CF75
:1003F000DF91CF910895FC0101900020E9F731973A
:10040000AF01481B590BBC0180EB91E00C94EE004E
:100410008F929F92AF92BF920F931F93CF93DF93D0
:10042000CDB7DEB7A1970FB6F894DEBF0FBECDBF34
:1004300019A2423008F44AE08E010F5D1F4F842E4E
:10044000912CB12CA12CA50194010E945004E62FFF
:10045000B901CA01EA30F4F4E05DD801EE938D01F0
:10046000232B242B252B79F790E080E0109719F0AF
:10047000CD010E94FB01A1960FB6F894DEBF0FBE1E
:10048000CDBFDF91CF911F910F91BF90AF909F9003
:100490008F900895E95CE1CF1F920F920FB60F92F3
:1004A00011242F933F938F939F93AF93BF9380918A
:1004B000AC019091AD01A091AE01B091AF0130912E
:1004C000AB0123E0230F2D3758F50196A11DB11D77
:1004D0002093AB018093AC019093AD01A093AE014A
:1004E000B093AF018091A7019091A801A091A901BB
:1004F000B091AA010196A11DB11D8093A70190930F
:10050000A801A093A901B093AA01BF91AF919F91B7
:100510008F913F912F910F900FBE0F901F901895C4
:1005200026E8230F0296A11DB11DD2CF1F920F9274
:100530000FB60F9211242F933F934F935F936F93B6
:100540007F938F939F93AF93BF93EF93FF9380EB32
:1005500091E00E946C01FF91EF91BF91AF919F914B
:100560008F917F916F915F914F913F912F910F905C
:100570000FBE0F901F9018951F920F920FB60F92FB
:1005800011242F938F939F93EF93FF93E091C001DA
:10059000F091C1018081E091C601F091C70182FD17
:1005A0001BC090818091C9018F5F8F732091CA0118
:1005B000821741F0E091C901F0E0E055FE4F958FC0
:1005C0008093C901FF91EF919F918F912F910F908F
:1005D0000FBE0F901F9018958081F4CF1F920F923D
:1005E0000FB60F9211248F938EB58093A50181E0F1
:1005F0008093A6018091A4018F5F8093A4018091D4
:10060000A4018EBD8F910F900FBE0F901F90189573
:10061000789484B5826084BD84B5816084BD85B5DD
:10062000826085BD85B5816085BD80916E008160E9
:1006300080936E001092810080918100826080938F
:100640008100809181008160809381008091800091
:100650008160809380008091B10084608093B100BC
:100660008091B00081608093B00080917A008460B6
:1006700080937A0080917A00826080937A008091E2
:100680007A00816080937A0080917A0080688093FC
:100690007A001092C10089E00E94CF0089E00E9498
:1006A000CF0080E00E9487008CE00E94CF00E091A4
:1006B000C001F091C10182E08083E091BC01F09122
:1006C000BD011082E091BE01F091BF018FEC8083EB
:1006D0001092C801E091C401F091C50186E08083C9
:1006E000E091C201F091C301808180618083E0913B
:1006F000C201F091C301808188608083E091C201D2
:10070000F091C301808180688083E091C201F09103
:10071000C30180818F7D80838CB580648CBD8CB556
:1007200080688CBD8091A4018EBD82E191E00E9421
:10073000FB018FE491E00E94FB018DEAC82E80E06E
:10074000D82E90E0E92E90E0F92E8091A601882322
:1007500051F11091A501C12FD0E089E00E94CF0096
:10076000209759F580E00E94870082E591E00E9481
:10077000FB016091A50170E090E080E04AE00E94FA
:10078000080285E791E00E94FB016091A40170E0FE
:1007900090E080E04AE00E9408028FE491E00E942D
:1007A000FB011092A601E114F10479F20E945801B4
:1007B000882359F20E940000C8CFCF3FD10511F421
:1007C00081E0D1CFF6018491833019F140F481307A
:1007D000B1F08230C9F0C038D10594F7C3CF87306B
:1007E00011F1883041F18430B1F78091800080624E
:1007F00080938000D0938B00C0938A00B6CF84B5DD
:10080000806884BD17BDB1CF84B5806284BD18BD3A
:10081000ACCF80918000806880938000D093890065
:10082000C0938800A2CF8091B00080688093B00010
:100830001093B3009ACF8091B00080628093B00093
:100840001093B40092CFE0EBF1E01382128288EEB5
:1008500093E0A0E0B0E084839583A683B78384E02F
:1008600091E09183808385EC90E09587848784EC88
:1008700090E09787868780EC90E0918B808B81EC6D
:1008800090E0938B828B82EC90E0958B848B86EC4E
:1008900090E0978B868B118E128E138E148E089596
:1008A000A1E21A2EAA1BBB1BFD010DC0AA1FBB1F74
:1008B000EE1FFF1FA217B307E407F50720F0A21BE6
:1008C000B30BE40BF50B661F771F881F991F1A9453
:1008D00069F760957095809590959B01AC01BD017D
:1008E000CF010895EE0FFF1F0590F491E02D0994BC
:0408F000F894FFCFAA
:1008F400000000008E01EE001B01DB014C012A0107
:100904003E015B5350492041707072656E74696397
:10091400655D20496E696369616C697A61646F2001
:1009240079206C6973746F20656E206D6F646F201D
:10093400696E7465727275706369C3B36E2E000D4F
:100944000A005B5350492041707072656E7469638C
:10095400655D204272696C6C6F20726563696269BF
:10096400646F3A2000207C205369677569656E7452
:10097400652072657370756573746120707265703B
:1009840061726164612028436F6E7461646F7229BF
:040994003A20000005
:00000001FF
