:100000000C9458000C9480000C9480000C94800098
:100010000C9480000C9480000C9480000C94800060
:100020000C9480000C9480000C9480000C94800050
:100030000C9480000C9480000C9480000C94800040
:100040000C9488030C9480000C94F8030C94D20355
:100050000C9480000C9480000C9480000C94800020
:100060000C942A040C948000000000002500280055
:100070002B00040404040404040402020202020229
:10008000030303030303010204081020408001025C
:1000900004081020010204081020000000080002DB
:1000A00001000003040700000000000000004905F3
:1000B00011241FBECFEFD8E0DEBFCDBF12E0A0E01D
:1000C000B1E0EAE2F1E102C005900D92AE38B1076D
:1000D000D9F724E0AEE8B2E001C01D92A030B2072B
:1000E000E1F710E0C8E5D0E004C02197FE010E94CE
:1000F0008D08C735D107C9F70E9482050C94930873
:100100000C94000090E0FC01E656FF4F2491FC01A6
:10011000EA57FF4F3491FC01EE58FF4FE491EE2374
:10012000C9F0222339F0233001F1A8F4213019F16C
:10013000223029F1F0E0EE0FFF1FE859FF4FA591A3
:10014000B4918FB7F894EC91611126C030953E239D
:100150003C938FBF08952730A9F02830C9F0243090
:1001600049F7809180008F7D03C0809180008F7758
:1001700080938000DFCF84B58F7784BDDBCF84B5DB
:100180008F7DFBCF8091B0008F778093B000D2CF6E
:100190008091B0008F7DF9CF3E2BDACF3FB7F89436
:1001A0008091530390915403A0915503B09156034D
:1001B00026B5A89B05C02F3F19F00196A11DB11DC2
:1001C0003FBFBA2FA92F982F8827BC01CD01620FFE
:1001D000711D811D911D42E0660F771F881F991FB9
:1001E0004A95D1F708958091470390914603891B62
:1001F000990B089508950895AF92BF92CF92DF9220
:10020000EF92FF920F931F93CF93DF936C017B01CB
:100210008B01040F151FEB015E01AE18BF08C0175C
:10022000D10759F06991D601ED91FC910190F081CF
:10023000E02DC6010995892B79F7C501DF91CF9192
:100240001F910F91FF90EF90DF90CF90BF90AF90F4
:100250000895FC01538D448D252F30E0842F90E0CC
:10026000821B930B541710F0CF96089501970895B1
:10027000FC01918D828D981761F0A28DAE0FBF2F7A
:10028000B11D5D968C91928D9F5F9F73928F90E0D0
:1002900008958FEF9FEF0895FC01918D828D98173F
:1002A00031F0828DE80FF11D858D90E008958FEF7C
:1002B0009FEF0895FC01918D228D892F90E0805C45
:1002C0009F4F821B91098F739927089587E593E0CB
:1002D0000E945A0121E0892B09F420E0822F089521
:1002E00080E090E0892B29F00E94660181110C9436
:1002F00000000895FC01A48DA80FB92FB11DA35AC9
:10030000BF4F2C91848D90E001968F739927848F35
:10031000A689B7892C93A089B1898C918370806458
:100320008C93938D848D981306C00288F389E02DF9
:1003300080818F7D80830895EF92FF920F931F93AA
:10034000CF93DF93EC0181E0888F9B8D8C8D981388
:100350001AC0E889F989808185FF15C09FB7F89494
:10036000EE89FF896083E889F989808183708064E0
:1003700080839FBF81E090E0DF91CF911F910F912B
:10038000FF90EF900895F62E0B8D10E00F5F1F4F3A
:100390000F731127E02E8C8D8E110CC00FB607FC49
:1003A000FACFE889F989808185FFF5CFCE010E94D7
:1003B0007A01F1CFEB8DEC0FFD2FF11DE35AFF4FCA
:1003C000F0829FB7F8940B8FEA89FB898081806265
:1003D000CFCFCF93DF93EC01888D8823B9F0AA8922
:1003E000BB89E889F9898C9185FD03C0808186FDF0
:1003F0000DC00FB607FCF7CF8C9185FFF2CF80813F
:1004000085FFEDCFCE010E947A01E9CFDF91CF9138
:1004100008952091AF02260F3327331F2132310573
:10042000ECF420912003FC0190E080E0243069F09E
:1004300082E00895A091AF022191AC0141575D4F38
:10044000A40FB52FB11D2C930196861798F38091B8
:10045000AF02680F6093AF0280E0089581E00895D5
:100460001092200381E080931F0310921A0361E031
:1004700082E10E94820061E083E10E948200E9EB58
:10048000F0E080818E7F808380818D7F808388E40F
:100490008093B80085E48093BC000895CF93DF93E8
:1004A00091E090938E028823B9F0C091B800D0916A
:1004B000BA008091BC008A7B8093BC0060E082E13E
:1004C0000E94820060E083E10E9482000E9430026C
:1004D000D093BA00C093B800DF91CF9108950895EA
:1004E000E091460380914703E81730F4F0E0EA5DBD
:1004F000FC4F808190E008958FEF9FEF08959091D9
:100500004603809147032FEF3FEF981748F4E92FF8
:10051000F0E0EA5DFC4F208130E09F5F909346035E
:10052000C9010895CF92DF92EF92FF920F931F932C
:10053000CF93DF937C01CB018A012091D602222345
:1005400089F0EB016B01C40ED51ECC15DD0569F0F9
:100550006991D701ED91FC910190F081E02DC701E7
:100560000995F3CF642F0E940902C801DF91CF9152
:100570001F910F91FF90EF90DF90CF900895CF9350
:10058000DF931F92CDB7DEB769832091D602222375
:10059000F9F02091F902203258F021E030E0FC011E
:1005A0003383228390E080E00F90DF91CF91089514
:1005B0008091D702E82FF0E0E852FD4F99819083B7
:1005C0008F5F8093D7028093F90281E090E0ECCFB7
:1005D00061E0CE0101960E940902F7CF90E080E031
:1005E0000895FC0101900020E9F73197AF01481B05
:1005F000590BBC0187E593E00C94FC008F929F920D
:10060000AF92BF920F931F93CF93DF93CDB7DEB717
:10061000A1970FB6F894DEBF0FBECDBF19A242302E
:1006200008F44AE08E010F5D1F4F842E912CB12CEF
:10063000A12CA50194010E946B08E62FB901CA0103
:10064000EA30F4F4E05DD801EE938D01232B242BE6
:10065000252B79F790E080E0109719F0CD010E94EA
:10066000F102A1960FB6F894DEBF0FBECDBFDF91A9
:10067000CF911F910F91BF90AF909F908F90089551
:10068000E95CE1CFCF93DF930E94F102EC0184E2B9
:1006900091E00E94F1028C0F9D1FDF91CF91089590
:1006A00085ED8093BC008091220390912303A0915B
:1006B0002403B09125030796A11DB11D23E0B69533
:1006C000A795979587952A95D1F72091BC0024FD91
:1006D00003C01092200308954091220350912303F8
:1006E0006091240370912503452B462B472B69F31A
:1006F0000097A105B10541F02AE22A95F1F700C063
:100700000197A109B109E1CF809121030C944E0218
:100710001F920F920FB60F9211242F933F938F9336
:100720009F93AF93BF9380914F0390915003A091FB
:100730005103B091520330914E0323E0230F2D3724
:1007400058F50196A11DB11D20934E0380934F03D0
:1007500090935003A0935103B0935203809153039D
:1007600090915403A0915503B09156030196A11D99
:10077000B11D8093530390935403A0935503B093FA
:100780005603BF91AF919F918F913F912F910F9001
:100790000FBE0F901F90189526E8230F0296A11DFB
:1007A000B11DD2CF1F920F920FB60F9211242F932B
:1007B0003F934F935F936F937F938F939F93AF93E9
:1007C000BF93EF93FF9387E593E00E947A01FF9137
:1007D000EF91BF91AF919F918F917F916F915F91B9
:1007E0004F913F912F910F900FBE0F901F90189532
:1007F0001F920F920FB60F9211242F938F939F93F6
:10080000EF93FF93E0916703F09168038081E0919B
:100810006D03F0916E0382FD1BC090818091700387
:100820008F5F8F7320917103821741F0E091700305
:10083000F0E0E95AFC4F958F80937003FF91EF91A0
:100840009F918F912F910F900FBE0F901F90189531
:100850008081F4CF1F920F920FB60F9211242F9325
:100860003F934F935F936F937F938F939F93AF9338
:10087000BF93EF93FF938091B900887F803609F48E
:100880004AC0F0F5883209F4A7C018F5803109F4A0
:100890009BC0B8F4882309F4F9C0883009F494C0E7
:1008A000FF91EF91BF91AF919F918F917F916F9148
:1008B0005F914F913F912F910F900FBE0F901F901E
:1008C0001895883109F488C0803251F780931E034F
:1008D00014C0803409F49DC040F48033B9F38833E8
:1008E000F9F680931E0385ECB0C0803509F485C00D
:1008F000883509F496C0883499F60E945003D0CF09
:10090000883909F48CC038F5883729F050F48836D6
:1009100011F0803729F683E0809320031092D102F2
:1009200057C0883809F47BC0803919F0803809F045
:10093000B7CF8091D102803208F071C0E091D1022E
:1009400081E08E0F8093D1028091BB00F0E0EF54E4
:10095000FD4F80833DC0803B39F0E0F4803A09F4DC
:1009600079C0883A09F09CCF84E0809320031092EC
:10097000B0021092AF02E091D402F091D502099535
:100980008091AF0281110FC081E08093AF0210927D
:100990008F0209C0803C09F4A6CF883C09F4A3CF9C
:1009A000883B09F07DCFE091B00281E08E0F80930B
:1009B000B002F0E0E157FD4F80818093BB00909141
:1009C000B0028091AF0229C080911B038093BB00CD
:1009D00085EC8093BC0064CF90911D0380911C0333
:1009E000981758F5E0911D0381E08E0F80931D0349
:1009F000F0E0E650FD4F8081E9CFE0911D0381E0FA
:100A00008E0F80931D038091BB00F0E0E650FD4FF8
:100A1000808390911D0380911C039817C8F285E88C
:100A2000D8CFE0911D0381E08E0F80931D0380914C
:100A3000BB00F0E0E650FD4F808380911F038111E1
:100A40005CCF81E080931A0384EA8093BC0010920B
:100A5000200326CF85EC8093BC0010922003809168
:100A6000D102803230F4E091D102F0E0EF54FD4F3A
:100A700010826091D10270E0E091D202F091D30235
:100A800081EB92E009951092D1020ACF10921E03D9
:100A900034CFE7E5F3E01382128288EE93E0A0E022
:100AA000B0E084839583A683B78324E031E031836B
:100AB000208325EC30E03587248724EC30E037872D
:100AC000268720EC30E0318B208B21EC30E0338B1B
:100AD000228B22EC30E0358B248B26EC30E0378BF8
:100AE000268B118E128E138E148EE4EFF3E0138298
:100AF000128284839583A683B78386E191E09183F4
:100B000080830895789484B5826084BD84B58160C3
:100B100084BD85B5826085BD85B5816085BD8091C8
:100B20006E00816080936E00109281008091810040
:100B30008260809381008091810081608093810038
:100B4000809180008160809380008091B1008460FA
:100B50008093B1008091B00081608093B00080915B
:100B60007A00846080937A0080917A00826080931A
:100B70007A0080917A00816080937A0080917A0077
:100B8000806880937A001092C10010924603109200
:100B900047031092D7021092F9020E9430028AEFA6
:100BA00090E09093D5028093D4028BEF90E09093E5
:100BB000D3028093D202E0916703F091680382E050
:100BC0008083E0916303F09164031082E0916503F8
:100BD000F09166038FEC808310926F03E0916B03BA
:100BE000F0916C0386E08083E0916903F0916A03E1
:100BF000808180618083E0916903F0916A03808144
:100C000088608083E0916903F0916A038081806845
:100C10008083E0916903F0916A0380818F7D8083F6
:100C200084E491E00E94420345EE342E00E010E09F
:100C3000C1E058E0452E66246A9435EC732E22E01C
:100C4000522E2FB7F89480914F0390915003A091AA
:100C50005103B09152032FBF40914A0350914B036F
:100C600060914C0370914D036C017D01C41AD50A4B
:100C7000E60AF70AB701A601483B5B40610571052A
:100C800008F4F0C180934A0390934B03A0934C0364
:100C9000B0934D038091480390914903019690933E
:100CA00049038093480392E0E92E80FD02C0EE24C0
:100CB000E394C093D6024092F8021092D7021092A9
:100CC000F9026E2D84EF93E00E94BF02D091F902E9
:100CD000D13208F074C10E94CE004B015C018091BA
:100CE0002003811166C050922003C0931F036092BD
:100CF0001E0310921D03D0931C03E8EDF2E0AAEF4F
:100D0000B2E0D81333C110921B0380911B038061A2
:100D100080931B0380911A03813009F02BC110923C
:100D20001A030E94CE004B015C0180911B0380934B
:100D3000BB008091220390912303A0912403B091E2
:100D40002503892B8A2B8B2BA1F00E94CE002091AA
:100D50002203309123034091240350912503681905
:100D600079098A099B09261737074807590708F4A4
:100D700041C08091BC0083FDD8CF7092BC000E941E
:100D8000CE004B015C0180912003823009F4F5C054
:100D900080911E03D0E08F3F91F180911E03D2E03D
:100DA000803269F180911E03D4E0803341F5D3E0B5
:100DB00026C08091220390912303A0912403B09137
:100DC0002503892B8A2B8B2B09F489CF0E94CE0017
:100DD0002091220330912303409124035091250355
:100DE000681979098A099B0926173707480759079F
:100DF00008F075CF809121030E944E02D5E0109239
:100E0000D7021092F9021092D6028FE591E00E946B
:100E1000F10281E0E81609F45BC187E291E00E94EB
:100E2000F10281E892E00E94F10283E991E0DD2382
:100E300069F08AE991E00E94F1026D2F70E090E084
:100E400080E04AE00E94FE0282EF91E00E944203AD
:100E50000E94CE004B015C0184EFC82EDD24D394A8
:100E6000E12CF12C0E94CE00681979098A099B09AE
:100E7000683E734081059105A8F321E0C21AD108AC
:100E8000E108F10888EE880E83E0981EA11CB11CD1
:100E9000C114D104E104F10429F70E94CE006B01D2
:100EA0007C018091200381118CC0C0932003C093EA
:100EB0001F0360921E0310921D0310921C03C09327
:100EC0001B0380911B03806180931B0380911A0395
:100ED000813009F0D3C010921A030E94CE006B013A
:100EE0007C0180911B038093BB0080912203909131
:100EF0002303A0912403B0912503892B8A2B8B2BEC
:100F0000A1F00E94CE008090220390902303A09035
:100F10002403B09025036C197D098E099F0986165C
:100F20009706A806B90608F46DC08091BC0083FD41
:100F3000D8CF7092BC000E94CE006B017C018091E2
:100F40002003813009F49DC080911D038111BBC035
:100F500080911D03AAEFB2E0E6E2F3E090E098177B
:100F600009F455C02D9121939F5FF9CF91919D93E5
:100F70008F5FC7CE3092BC0002CF80912203909148
:100F80002303A0912403B0912503892B8A2B8B2B5B
:100F900009F4F9CE0E94CE00209122033091230360
:100FA0004091240350912503681979098A099B0906
:100FB000261737074807590708F0E5CE1BCFD1E0C1
:100FC0001ECF8091220390912303A0912403B0911E
:100FD0002503892B8A2B8B2B09F463CF0E94CE002B
:100FE0008090220390902303A0902403B0902503C7
:100FF0006C197D098E099F0986169706A806B90601
:1010000008F04FCF809121030E944E0280E01092A1
:10101000460380934703882309F457C084EF93E085
:101020000E947F02D82F8AEA91E00E94F10289EDA6
:1010300091E0D13089F084EF91E0D23069F08DE019
:1010400092E00E94F1026D2F70E090E080E04AE0B3
:101050000E94FE0282EF91E00E94420388E592E046
:101060000E9442030115110509F4EBCD0E946601AF
:10107000882309F4E4CD0E940000DFCD3092BC004B
:101080005ACF8091220390912303A0912403B09121
:101090002503892B8A2B8B2B09F451CF0E94CE007C
:1010A0008090220390902303A0902403B090250306
:1010B0006C197D098E099F0986169706A806B90640
:1010C00008F03DCF9FCF81E045CF8BE192E0C4CFC8
:1010D00086E391E0A4CEA1E21A2EAA1BBB1BFD0160
:1010E0000DC0AA1FBB1FEE1FFF1FA217B307E40707
:1010F000F50720F0A21BB30BE40BF50B661F771F5F
:10110000881F991F1A9469F760957095809590953E
:101110009B01AC01BD01CF010895EE0FFF1F0590AB
:0A112000F491E02D0994F894FFCF3C
:10112A00000000009C01FC002901E9015A01380174
:10113A004C0100000000BF029202EE026F02F300AF
:10114A007F0270020D0A004C45445F4F4646205B01
:10115A00307830325D004C45445F4F4E205B30782A
:10116A0030315D005B493243204D61737465725DB5
:10117A0020496E696369616C697A61646F2E005BEC
:10118A00493243204D61737465725D205472616EF9
:10119A00736D697369C3B36E20616C206170726587
:1011AA006E64697A202845736372696269656E6440
:1011BA006F2000C3897869746F004572726F72205C
:1011CA002863C3B36469676F20005B493243204DCB
:1011DA0061737465725D20526573707565737461AD
:1011EA002064656C20617072656E64697A2072652C
:1011FA006369626964613A20004C454420657374EE
:10120A00C3A120454E43454E4449444F20283078D7
:10121A00303129004C454420657374C3A1204150E4
:10122A00414741444F2028307830322900446573C1
:10123A00636F6E6F6369646F2028005B49324320D5
:10124A004D61737465725D204572726F723A204EF9
:10125A006F20736520726563696269C3B320726522
:10126A00737075657374612061206C6120736F6C93
:10127A006963697475642E002D2D2D2D2D2D2D2D4C
:10128A002D2D2D2D2D2D2D2D2D2D2D2D2D2D2D2D84
:10129A002D2D2D2D2D2D2D2D2D2D2D2D2D2D2D2D74
:0E12AA0000292E2045737461646F3A20000005
:00000001FF
