:100000000C9463000C948B000C948B000C940A04E9
:100010000C940A040C940A040C948B000C948B002E
:100020000C948B000C948B000C948B000C948B0024
:100030000C948B000C948B000C948B000C948B0014
:100040000C9468030C948B000C94D8030C94B203AA
:100050000C948B000C948B000C948B000C948B00F4
:100060000C948B000C948B000000000024002700EF
:100070002A0000000008000201000003040700003D
:1000800000000000000000000000230026002900FE
:1000900000000000250028002B00040404040404D0
:1000A0000404020202020202030303030303010227
:1000B00004081020408001020408102001020408F6
:1000C00010208204180711241FBECFEFD8E0DEBF36
:1000D000CDBF22E0A0EDB1E001C01D92A43EB20769
:1000E000E1F711E0A0E0B1E0E2E0F3E102C0059049
:1000F0000D92A03DB107D9F710E0C2E6D0E004C0F0
:100100002197FE010E947307C136D107C9F70E94EB
:1001100040050C9474090C94000090E0FC01EE582A
:10012000FF4F2491FC01E255FF4F3491FC01E6564C
:10013000FF4FE491EE23C9F0222339F0233001F17F
:10014000A8F4213019F1223029F1F0E0EE0FFF1F61
:10015000E057FF4FA591B4918FB7F894EC916111DE
:1001600026C030953E233C938FBF08952730A9F0D9
:100170002830C9F0243049F7809180008F7D03C07A
:10018000809180008F7780938000DFCF84B58F7758
:1001900084BDDBCF84B58F7DFBCF8091B0008F779E
:1001A0008093B000D2CF8091B0008F7DF9CF3E2BED
:1001B000DACFCF93DF9390E0FC01E255FF4F24911B
:1001C00086569F4FFC0184918823D1F090E0880FE0
:1001D000991FFC01E859FF4FA591B491FC01E0572C
:1001E000FF4FC591D49161110EC09FB7F8948C91C7
:1001F000E22FE0958E238C932881E223E8839FBF32
:10020000DF91CF9108958FB7F894EC91E22BEC93A6
:100210008FBFF6CFAF92BF92CF92DF92EF92FF9255
:100220000F931F93CF93DF936C017B018B01040F1E
:10023000151FEB015E01AE18BF08C017D10759F0BA
:100240006991D601ED91FC910190F081E02DC601FC
:100250000995892B79F7C501DF91CF911F910F91F6
:10026000FF90EF90DF90CF90BF90AF900895FC018A
:10027000538D448D252F30E0842F90E0821B930B0B
:10028000541710F0CF96089501970895FC01918DB1
:10029000828D981761F0A28DAE0FBF2FB11D5D96B4
:1002A0008C91928D9F5F9F73928F90E008958FEF56
:1002B0009FEF0895FC01918D828D981731F0828D0A
:1002C000E80FF11D858D90E008958FEF9FEF089561
:1002D000FC01918D228D892F90E0805C9F4F821BC5
:1002E00091098F73992708958EE192E00E94680129
:1002F00021E0892B09F420E0822F089580E090E02E
:10030000892B29F00E94740181110C94000008953A
:10031000FC01A48DA80FB92FB11DA35ABF4F2C917A
:10032000848D90E001968F739927848FA689B78971
:100330002C93A089B1898C91837080648C93938D68
:10034000848D981306C00288F389E02D80818F7D0B
:1003500080830895EF92FF920F931F93CF93DF93C3
:10036000EC0181E0888F9B8D8C8D98131AC0E889F1
:10037000F989808185FF15C09FB7F894EE89FF89C0
:100380006083E889F98980818370806480839FBF5E
:1003900081E090E0DF91CF911F910F91FF90EF905E
:1003A0000895F62E0B8D10E00F5F1F4F0F7311276E
:1003B000E02E8C8D8E110CC00FB607FCFACFE889A9
:1003C000F989808185FFF5CFCE010E948801F1CFA8
:1003D000EB8DEC0FFD2FF11DE35AFF4FF0829FB71D
:1003E000F8940B8FEA89FB8980818062CFCFCF930D
:1003F000DF93EC01888D8823B9F0AA89BB89E8894D
:10040000F9898C9185FD03C0808186FD0DC00FB6F2
:1004100007FCF7CF8C9185FFF2CF808185FFEDCF70
:10042000CE010E948801E9CFDF91CF9108952091FC
:100430001202309113022817390771F490911002BB
:1004400080911102981741F0E0911002F0E0E05322
:10045000FE4F808190E008958FEF9FEF08950895FB
:10046000EF92FF920F931F93CF93DF93DC015C9683
:10047000ED90FC905D97E114F10479F481E090E057
:1004800013969C938E93129790E080E0DF91CF912A
:100490001F910F91FF90EF9008955196ED91FC916F
:1004A000529750968C915097982F90950FB75E96D3
:1004B0002C915E97122F127021FD6095F894208187
:1004C000112319F1282B2083E7012197F1F728E068
:1004D000462F50E0308160FF1AC0382B3083E7018F
:1004E0002197F1F7BA0175956795215089F7112386
:1004F00081F08081892380830FBF5C968D919C91D0
:100500000197F1F781E090E0C1CF2923DCCF3923B7
:10051000E5CF9081892BEFCF209112023091130209
:100520002817390761F4809111022091100290E0A0
:10053000805C9F4F821B91098F739927089590E0EB
:1005400080E0089520911202309113022817390794
:10055000B9F49091100280911102981789F0E091FE
:100560001002F0E0E053FE4F80812091100230E055
:100570002F5F3F4F2F7333272093100290E0089591
:100580008FEF9FEF089590E080E00895FC010190C7
:100590000020E9F73197AF01481B590BBC018EE1F0
:1005A00092E00C940A01CF93DF930E94C602EC0103
:1005B0008AE291E00E94C6028C0F9D1FDF91CF91CD
:1005C0000895CF93DF93EC0188819981009711F012
:1005D0000E941508198218821D821C821B821A82B1
:1005E000DF91CF9108950F931F93CF93DF93EC0189
:1005F00088819981009759F02A813B812617370716
:1006000030F081E0DF91CF911F910F9108958B0120
:100610006F5F7F4F0E949E08009759F099838883EF
:100620001B830A832C813D81232B59F7FC01108207
:10063000E8CF80E0E7CFEF92FF920F931F93CF9325
:10064000DF936115710541F480E0DF91CF911F9137
:100650000F91FF90EF90089541155105B1F07B0186
:10066000EC010C811D81040F151FB8010E94F302DB
:10067000882351F3288139818C819D81B701820FB4
:10068000931F0E946D091D830C8381E0DECFEF92E2
:10069000FF920F931F93CF93DF93EC017B018A01AD
:1006A000BA010E94F30281110BC0CE010E94E10247
:1006B000CE01DF91CF911F910F91FF90EF900895A0
:1006C0001D830C83B701888199810E946D09F0CF49
:1006D0001F920F920FB60F9211242F933F938F9377
:1006E0009F93AF93BF9380911A0290911B02A091A8
:1006F0001C02B0911D023091190223E0230F2D3707
:1007000058F50196A11DB11D2093190280931A027C
:1007100090931B02A0931C02B0931D0280911502BE
:1007200090911602A0911702B09118020196A11D96
:10073000B11D8093150290931602A0931702B093F7
:100740001802BF91AF919F918F913F912F910F9080
:100750000FBE0F901F90189526E8230F0296A11D3B
:10076000B11DD2CF1F920F920FB60F9211242F936B
:100770003F934F935F936F937F938F939F93AF9329
:10078000BF93EF93FF938EE192E00E948801FF9167
:10079000EF91BF91AF919F918F917F916F915F91F9
:1007A0004F913F912F910F900FBE0F901F90189572
:1007B0001F920F920FB60F9211242F938F939F9336
:1007C000EF93FF93E0912E02F0912F028081E09150
:1007D0003402F091350282FD1BC090818091370276
:1007E0008F5F8F7320913802821741F0E0913702BA
:1007F000F0E0E25EFD4F958F80933702FF91EF911D
:100800009F918F912F910F900FBE0F901F90189571
:100810008081F4CF1F920F920FB60F9211242F9365
:100820003F934F935F936F937F938F939F93AF9378
:10083000BF93EF93FF93E0911202F0911302309770
:1008400049F0A685B7858585968D91FF14C09C914A
:100850008923A1F4FF91EF91BF91AF919F918F9167
:100860007F916F915F914F913F912F910F900FBEAC
:100870000F901F9018959C91892361F7A389B489E3
:100880009C918589809589238C9386899789019786
:10089000F1F7608D718DA685B785558538E020E02C
:1008A000CB010197F1F7822F90E095958795282F3E
:1008B0004C91452309F02068315091F7868D81FDD8
:1008C00020958091110290E001968F7399273091C5
:1008D0001002381799F0A0911102B0E0A053BE4F5A
:1008E0002C9380931102828D938D0197F1F7A38948
:1008F000B4898C919589892B8C93ACCF868D81603E
:10090000868FF1CF109221021092200288EE93E0A0
:10091000A0E0B0E08093220290932302A0932402EF
:10092000B09325022AE031E030931F0220931E028B
:1009300025EC30E030932B0220932A0224EC30E0A7
:1009400030932D0220932C0220EC30E030932F02C4
:1009500020932E0221EC30E03093310220933002BC
:1009600022EC30E0309333022093320226EC30E068
:1009700030933502209334021092370210923802DD
:100980001092390210923A021092C4021092C302DD
:100990008093C5029093C602A093C702B093C80289
:1009A0008CE191E09093C2028093C1021092D80230
:1009B0001092D7021092DA021092D9021092DC0241
:1009C0001092DB021092DE021092DD026091DF02D3
:1009D0006E7F6D7F6093DF026695617081E06827AE
:1009E00083E00E948D0061E083E00E94D900E1EB8A
:1009F000F0E0E491E093D102EDE9F0E0E491F0E081
:100A0000EE0FFF1FE057FF4F859194919093D30213
:100A10008093D20260E082E00E94D9008091DF02E0
:100A200081FD04C061E082E00E948D0082E080933D
:100A3000CD02E0EBF0E0E491E093CE02ECE9F0E0EF
:100A4000E491F0E0EE0FFF1FEA57FF4F859194917C
:100A50009093D0028093CF021092BC021092BB02FE
:100A60001092BE021092BD021092C0021092BF02FC
:100A700050E040E06CE271E08BEB92E00C944703B5
:100A8000CF93DF9300D000D000D0CDB7DEB77894FD
:100A900084B5826084BD84B5816084BD85B5826083
:100AA00085BD85B5816085BD80916E008160809334
:100AB0006E0010928100809181008260809381009D
:100AC00080918100816080938100809180008160AD
:100AD000809380008091B10084608093B100809108
:100AE000B00081608093B00080917A008460809330
:100AF0007A0080917A00826080937A0080917A00F7
:100B0000816080937A0080917A00806880937A0077
:100B10001092C10061E08DE00E94D90060E08DE09C
:100B20000E948D00E0912E02F0912F0282E08083DE
:100B3000E0912A02F0912B021082E0912C02F091B8
:100B40002D028FEC808310923602E0913202F091F8
:100B5000330286E08083E0913002F091310280819F
:100B600080618083E0913002F09131028081886061
:100B70008083E0913002F09131028081806880832F
:100B8000E0913002F091310280818F7D808310925C
:100B9000DC021092DB021092DA021092D90210925B
:100BA000D8021092D7028DE991E09093DE028093F3
:100BB000DD029091CD02963108F047C02DEB30E078
:100BC0003093D8022093D7022BE931E03093DA0238
:100BD0002093D9022CE231E03093DC022093DB0237
:100BE0002091680084E0983048F031E09E3008F4AD
:100BF00030E081E001C0880F3A95EAF7822B8093BC
:100C000068002DE630E0983050F02BE630E09E3062
:100C100030F02CE630E0963110F030E020E03093F8
:100C2000D5022093D402292F30E0983008F05CC020
:100C300081E001C0880F9A95EAF78093D6028091EF
:100C4000DD029091DE020197F1F78091DB02909135
:100C5000DC02892B49F1E0911202F091130282E04B
:100C6000E13CF80709F1309739F0A389B4899C91E8
:100C70008589809589238C938091DF028E7F809374
:100C8000DF02109211021092100281EC92E0909318
:100C9000130280931202E091D402F091D502808178
:100CA0009091D602892B80838DE291E00E94D3023D
:100CB00080E0E82E80E0F82EDD24D39481EC92E0F1
:100CC0000E948C02181619060CF581EC92E00E9425
:100CD000A2028B35B1F450E040E06CE271E08BEBA6
:100CE00092E00E944703EACF9E3040F42850310939
:100CF00081E001C0880F2A95EAF79FCF2E50310975
:100D0000F7CF8D3509F07AC0D09214028091140289
:100D1000882309F467C081E691E00E94C6021A8226
:100D200019821C821B821E821D8241E050E06CE70A
:100D300071E0CE0101960E9447034091BF0250919D
:100D4000C0026091BB027091BC02CE0101960E946C
:100D50001B03811104C0CE0101960E94E10241E013
:100D600050E06EE771E0CE0101960E941B038111F5
:100D700004C0CE0101960E94E1024D815E8169812D
:100D80007A818EE192E00E940A018AE291E00E945B
:100D9000C60289819A81009711F00E9415088091FE
:100DA000BF029091C002892B99F00091BB02109173
:100DB000BC0260E871E0C8010E946409892B51F50A
:100DC00061E08DE00E948D0087E891E00E94D302EF
:100DD00050E040E06CE271E08BEB92E00E94470350
:100DE00010921402E114F10409F468CF0E94740116
:100DF000882309F463CF0E94000060CF89831A82A0
:100E000041E050E0BE016F5F7F4F8BEB92E00E94AC
:100E10001B0354CF68EA71E0C8010E946409892B62
:100E2000B9F660E08DE00E948D0080EB91E0CECFBE
:100E30008091BB029091BC02009711F00E941508AE
:100E40008CE191E09093C2028093C10280911202E2
:100E500090911302815C924071F4E091D402F09180
:100E6000D50290818091D60280958923808310924B
:100E700013021092120208952F923F924F925F92A6
:100E80006F927F928F929F92AF92BF92CF92DF929A
:100E9000EF92FF920F931F93CF93DF93CDB7DEB7FF
:100EA000CA1BDB0B0FB6F894DEBF0FBECDBF099493
:100EB0002A88398848885F846E847D848C849B84EA
:100EC000AA84B984C884DF80EE80FD800C811B81F8
:100ED000AA81B981CE0FD11D0FB6F894DEBF0FBE27
:100EE000CDBFED010895EE0FFF1F0590F491E02DA9
:100EF00009940F931F93CF93DF938230910510F4E1
:100F000082E090E0E091E202F091E30230E020E044
:100F1000B0E0A0E0309799F42115310509F44AC0FA
:100F2000281B390B24303105D8F58A819B81611546
:100F3000710589F1FB0193838283FE0111C0408119
:100F400051810281138148175907E0F0481759076A
:100F500099F4109761F012960C93129713961C93C4
:100F60003296CF01DF91CF911F910F910895009399
:100F7000E2021093E302F4CF2115310551F042173C
:100F8000530738F0A901DB019A01BD01DF01F80127
:100F9000C1CFEF01F9CF9093E3028093E202CDCF6E
:100FA000FE01E20FF31F819391932250310939839F
:100FB0002883D7CF2091E0023091E102232B41F426
:100FC00020910201309103013093E1022093E0026D
:100FD00020910001309101012115310541F42DB717
:100FE0003EB74091040150910501241B350BE0915F
:100FF000E002F091E102E217F307A0F42E1B3F0B91
:101000002817390778F0AC014E5F5F4F241735077A
:1010100048F04E0F5F1F5093E1024093E00281932E
:1010200091939FCFF0E0E0E09CCFCF93DF930097C8
:10103000E9F0FC01329713821282A091E202B09192
:10104000E302ED0130E020E01097A1F4208131812E
:10105000820F931F2091E0023091E1022817390797
:1010600009F061C0F093E102E093E002DF91CF91DB
:101070000895EA01CE17DF07E8F54A815B819E01FA
:1010800041155105B1F7E901FB83EA834991599173
:10109000C40FD51FEC17FD0761F480819181029682
:1010A000840F951FE90199838883828193819B83B3
:1010B0008A83F0E0E0E012968D919C91139700975F
:1010C000B9F52D913C911197CD010296820F931F96
:1010D0002091E0023091E1022817390739F6309764
:1010E00051F51092E3021092E202B093E102A09354
:1010F000E002BCCFD383C28340815181840F951F0E
:10110000C817D90761F44E5F5F4F88819981480FF6
:10111000591F518340838A819B8193838283211548
:10112000310509F0B0CFF093E302E093E2029ECFE5
:10113000FD01DC01C0CF13821282D7CFB0E0A0E066
:10114000E4EAF8E00C943E078C01009751F4CB01DF
:101150000E9479078C01C801CDB7DEB7E0E10C949D
:101160005A07FC01E60FF71F9C0122503109E217D4
:10117000F30708F49DC0D901CD91DC911197C617F2
:10118000D70798F0C530D10530F3CE010497861704
:10119000970708F3C61BD70B2297C193D1936D9382
:1011A0007C93CF010E941508D6CF5B01AC1ABD0A13
:1011B0004C018C0E9D1EA091E202B091E302512CD5
:1011C000412CF12CE12C109731F58091E0029091A7
:1011D000E1028815990509F05CC04616570608F02B
:1011E00058C08091000190910101009741F48DB7A2
:1011F0009EB74091040150910501841B950BE8179F
:10120000F90708F055C0F093E102E093E002F9011C
:1012100071836083A0CF8D919C91119712966C90F1
:10122000129713967C901397A815B90559F56C0180
:1012300042E0C40ED11CCA14DB0420F1AC014A19EF
:101240005B09DA011296159780F0628273825183EE
:101250004083D9016D937C93E114F10471F0D701BF
:101260001396FC93EE93129776CF22968C0F9D1FC8
:10127000F90191838083F301EFCFF093E302E093D0
:10128000E20269CF4816590608F42C017D01D3010A
:101290009ACFCB010E9479077C01009749F0AE01FB
:1012A000B8010E945B09C8010E941508870153CF4D
:1012B00010E000E050CFFB01DC0102C001900D9274
:1012C00041505040D8F70895FB01DC018D91019009
:1012D00080190110D9F3990B0895FB01DC010190ED
:1012E0000D920020E1F7089510E0C2E6D0E004C0BE
:1012F000FE010E9473072196C336D107C9F7F894FF
:02130000FFCF1D
:101302000000E402800000000000AA010A01370187
:10131200F701680146015A010000000030020A018B
:10132200C3022F028C02A20217020D0A005B554172
:1013320052542052656365697665725D20496E6913
:101342006369616C697A61646F2E2045737065729E
:10135200616E646F20636F6D616E646F732E2E2EEB
:10136200005B554152542052656365697665725D32
:1013720020526563696269646F3A20005B005D0018
:101382004C45445F4F4E005B5541525420526563B9
:1013920065697665725D202D3E204C454420454EA0
:1013A20043454E4449444F004C45445F4F46460036
:1013B2005B554152542052656365697665725D20C2
:1013C2002D3E204C4544204150414741444F0000AE
:00000001FF
